:020000040000fa
:080000000002040000000000f2
:020000040000fa
:04000800b80200003a
:020000040000fa
:04000c00b802000036
:020000040000fa
:04001000b802000032
:020000040000fa
:04001400b80200002e
:020000040000fa
:04001800b80200002a
:020000040000fa
:04001c00b802000026
:020000040000fa
:04002000b802000022
:020000040000fa
:04002400b80200001e
:020000040000fa
:04002800b80200001a
:020000040000fa
:04002c00b802000016
:020000040000fa
:04003000b802000012
:020000040000fa
:04003400b80200000e
:020000040000fa
:04003800b80200000a
:020000040000fa
:04003c00b802000006
:020000040000fa
:04004000b802000002
:020000040000fa
:040044007a3100000d
:020000040000fa
:04004800b8020000fa
:020000040000fa
:04004c00b8020000f6
:020000040000fa
:04005000b8020000f2
:020000040000fa
:04005400b8310000bf
:020000040000fa
:040058009a310000d9
:020000040000fa
:04005c00b8020000e6
:020000040000fa
:04006000b8020000e2
:020000040000fa
:04006400b8020000de
:020000040000fa
:04006800b8020000da
:020000040000fa
:04006c00b8020000d6
:020000040000fa
:04007000b8020000d2
:020000040000fa
:0400740072310000e5
:020000040000fa
:04007800b8020000ca
:020000040000fa
:04007c00b8020000c6
:020000040000fa
:04008000b8020000c2
:020000040000fa
:04008400b8020000be
:020000040000fa
:04008800b8020000ba
:020000040000fa
:04008c00b8020000b6
:020000040000fa
:04009000b8020000b2
:020000040000fa
:04009400b8020000ae
:020000040000fa
:04009800b8020000aa
:020000040000fa
:04009c00b8020000a6
:020000040000fa
:0400a000fa31000031
:020000040000fa
:0400a400dc3100004b
:020000040000fa
:0400a800b80200009a
:020000040000fa
:0400ac00b802000096
:020000040000fa
:0400b000b802000092
:020000040000fa
:0400b400b80200008e
:020000040000fa
:0400b800b80200008a
:020000040000fa
:0400bc00b802000086
:020000040000fa
:0400c000b802000082
:020000040000fa
:0400c400b80200007e
:020000040000fa
:0400c800b80200007a
:020000040000fa
:0400cc00b802000076
:020000040000fa
:0400d000b802000072
:020000040000fa
:0400d400b80200006e
:020000040000fa
:0400d800b80200006a
:020000040000fa
:0400dc00b802000066
:020000040000fa
:0400e000b802000062
:020000040000fa
:0400e400b80200005e
:020000040000fa
:0400e800b80200005a
:020000040000fa
:0400ec00b802000056
:020000040000fa
:0400f000b802000052
:020000040000fa
:0400f400b80200004e
:020000040000fa
:0400f800b80200004a
:020000040000fa
:0400fc00b802000046
:020000040000fa
:04010000b802000041
:020000040000fa
:04010400b80200003d
:020000040000fa
:04010800b802000039
:020000040000fa
:04010c00b802000035
:020000040000fa
:04011000b802000031
:020000040000fa
:04011400b80200002d
:020000040000fa
:04011800b802000029
:020000040000fa
:04011c00b802000025
:020000040000fa
:04012000b802000021
:020000040000fa
:04012400b80200001d
:020000040000fa
:04012800b802000019
:020000040000fa
:04012c00b802000015
:020000040000fa
:04013000b802000011
:020000040000fa
:04013400b80200000d
:020000040000fa
:04013800b802000009
:020000040000fa
:04013c00b802000005
:020000040000fa
:04014000b802000001
:020000040000fa
:04014400b8020000fd
:020000040000fa
:04014800b8020000f9
:020000040000fa
:04014c00b8020000f5
:020000040000fa
:04015000b8020000f1
:020000040000fa
:04015400b8020000ed
:020000040000fa
:04015800b8020000e9
:020000040000fa
:04015c00b8020000e5
:020000040000fa
:04016000b8020000e1
:020000040000fa
:04016400b8020000dd
:020000040000fa
:04016800b8020000d9
:020000040000fa
:04016c00b8020000d5
:020000040000fa
:040170003c3200001d
:020000040000fa
:040174001e32000037
:020000040000fa
:04017800b8020000c9
:020000040000fa
:04017c00b8020000c5
:020000040000fa
:04018000b8020000c1
:020000040000fa
:04018400b8020000bd
:020000040000fa
:04018800b8020000b9
:020000040000fa
:04018c00b8020000b5
:020000040000fa
:04019000b8020000b1
:020000040000fa
:04019400b8020000ad
:020000040000fa
:04019800b8020000a9
:020000040000fa
:04019c00b8020000a5
:020000040000fa
:04020800b802000038
:020000040000fa
:04020c00b802000034
:020000040000fa
:04021000b802000030
:020000040000fa
:04021400b80200002c
:020000040000fa
:04021800b802000028
:020000040000fa
:04021c00b802000024
:020000040000fa
:04022000b802000020
:020000040000fa
:04022400b80200001c
:020000040000fa
:04022800b802000018
:020000040000fa
:04022c00b802000014
:020000040000fa
:04023000b802000010
:020000040000fa
:04023400b80200000c
:020000040000fa
:04023800b802000008
:020000040000fa
:04023c00b802000004
:020000040000fa
:04024000b802000000
:020000040000fa
:04024400b8020000fc
:020000040000fa
:04024800b8020000f8
:020000040000fa
:04024c00b8020000f4
:020000040000fa
:04025000b8020000f0
:020000040000fa
:04025400b8020000ec
:020000040000fa
:04025800b8020000e8
:020000040000fa
:04025c00b8020000e4
:020000040000fa
:04026000b8020000e0
:020000040000fa
:04026400b8020000dc
:020000040000fa
:04026800b8020000d8
:020000040000fa
:04026c00b8020000d4
:020000040000fa
:04027000b8020000d0
:020000040000fa
:04027400b8020000cc
:020000040000fa
:04027800b8020000c8
:020000040000fa
:04027c00b8020000c4
:020000040000fa
:04028000b8020000c0
:020000040000fa
:04028400b8020000bc
:020000040000fa
:04028800b8020000b8
:020000040000fa
:04028c00b8020000b4
:020000040000fa
:04029000b8020000b0
:020000040000fa
:04029400b8020000ac
:020000040000fa
:04029800b8020000a8
:020000040000fa
:04029c00b8020000a4
:020000040000fa
:0402a000b8020000a0
:020000040000fa
:0402a400b80200009c
:020000040000fa
:0402a800b802000098
:020000040000fa
:0402ac00b802000094
:020000040000fa
:0402b000b802000090
:020000040000fa
:0402b400b80200008c
:020000040000fa
:0402b800b802000088
:020000040000fa
:0402bc00b802000084
:020000040000fa
:0402c000b802000080
:020000040000fa
:0402c400b80200007c
:020000040000fa
:0402c800b802000078
:020000040000fa
:0402cc00b802000074
:020000040000fa
:0402d000b802000070
:020000040000fa
:0402d400b80200006c
:020000040000fa
:0402d800b802000068
:020000040000fa
:0402dc00b802000064
:020000040000fa
:0402e000b802000060
:020000040000fa
:0402e400b80200005c
:020000040000fa
:0402e800b802000058
:020000040000fa
:0402ec00b802000054
:020000040000fa
:0402f000b802000050
:020000040000fa
:0402f400b80200004c
:020000040000fa
:0402f800b802000048
:020000040000fa
:0402fc00b802000044
:020000040000fa
:04030000b80200003f
:020000040000fa
:04030400b80200003b
:020000040000fa
:04030800b802000037
:020000040000fa
:04030c00b802000033
:020000040000fa
:04031000b80200002f
:020000040000fa
:04031400b80200002b
:020000040000fa
:04031800b802000027
:020000040000fa
:04031c00b802000023
:020000040000fa
:04032000b80200001f
:020000040000fa
:04032400b80200001b
:020000040000fa
:04032800b802000017
:020000040000fa
:04032c00b802000013
:020000040000fa
:04033000b80200000f
:020000040000fa
:04033400b80200000b
:020000040000fa
:04033800b802000007
:020000040000fa
:04033c00b802000003
:020000040000fa
:04034000b8020000ff
:020000040000fa
:04034400b8020000fb
:020000040000fa
:04034800b8020000f7
:020000040000fa
:04034c00b8020000f3
:020000040000fa
:04035000b8020000ef
:020000040000fa
:04035400b8020000eb
:020000040000fa
:04035800b8020000e7
:020000040000fa
:04035c00b8020000e3
:020000040000fa
:04036000b8020000df
:020000040000fa
:04036400b8020000db
:020000040000fa
:04036800b8020000d7
:020000040000fa
:04036c00b8020000d3
:020000040000fa
:04037000b8020000cf
:020000040000fa
:04037400b8020000cb
:020000040000fa
:04037800b8020000c7
:020000040000fa
:04037c00b8020000c3
:020000040000fa
:04038000b8020000bf
:020000040000fa
:04038400b8020000bb
:020000040000fa
:04038800b8020000b7
:020000040000fa
:04038c00b8020000b3
:020000040000fa
:04039000b8020000af
:020000040000fa
:04039400b8020000ab
:020000040000fa
:04039800b8020000a7
:020000040000fa
:04039c00b8020000a3
:020000040000fa
:100400002f4721000e7f24000e018800000000000d
:10041000000020000000e000020032000001200087
:10042000200288000c000700204224000100200068
:1004300011000700000020000000e0000200320070
:100440000000020000000000265002000000000032
:100450000040da000000fe004440a900e03a20001d
:100460000000e0000300320000002000a00188002e
:100470004440a80000000600910188008000780038
:100480000000eb0015003700e280400032a0b4000d
:100490009101ba00e280400032a0b4009102ba009b
:1004a000e280400032a0b4000002eb00472bde00e7
:1004b000f507b200602ce10004003a000059eb009f
:1004c0008301e900fdff3e00040037006128e100e0
:1004d000010032000082eb000b00070011c3ba00dc
:1004e0001101ba000604e00003003a000200e00037
:1004f000e5ff3a0000000600f607b200960188000a
:1005000082007800f5ff37003159ba008301e90015
:100510000c0032002159ba008301e90008003200c2
:100520000400e00003003a00e280400032a0b40082
:10053000f5ff370011d9ba008301e900faff3a004c
:100540008100e800e180400032a0b4000000060015
:10055000f62a040000000000c802040000000000a9
:10056000f4020400000000002a0304000000000060
:100570000040da000000fe008000780001017800f1
:100580003104e000fdff3a000000510000000600c9
:10059000881f780002047800080178002600070010
:1005a000080040004f047800000006000000fa0038
:1005b000881f780000047800ea8157003fb997004f
:1005c00088007800802c2000520007000000e00026
:1005d000020035008040eb00017478004f04780081
:1005e0000080fa0000000600881f780002047800ee
:1005f0000801780010000700080040004f04780050
:1006000000000600881f780000047800820178004e
:100610000101780088007800402f2000ef000700db
:100620000000e000020035008040eb00017478001b
:100630004f047800000006008001780002003700b7
:10064000b15978000201e9000200e000fcff3a0025
:1006500000000600881f7800020478000801780076
:10066000f5ff0700080040004f0478000000060076
:100670000000fa00881f780000047800ea81570023
:100680003fb9970088007800a0322000d30007000f
:100690000000e000020035008040eb0001747800ab
:1006a0004f0478000080fa0000000600889fbe001a
:1006b000810478000000e00002003a0048a38000b6
:1006c00001003700000478000800be007501070033
:1006d000000444001804e00004003a0060462100d1
:1006e00040a388000004eb00070037000800be00ac
:1006f0007c010700000044001004e000010032000b
:100700000058eb0040a38800080078004f04be00aa
:10071000000006006200fa00889fbe008a1f780071
:1007200000057800810478000204780083007800d6
:1007300080f92f000f0040007b0107009a979f006f
:10074000a9979f000000eb00b09f9f001885fb0059
:100750008a04fb000a05ea004f55de005002200023
:10076000808f54000d003200e10f55000b003a005d
:100770000a017800880078002f9097009f919700d9
:1007800003000100a0979f000000e0008e003200ef
:100790003f9897000000e800b09f9f000a044400c3
:1007a00050022000808f5400040032000900e00055
:1007b000e6ff3a003f989700840037000000eb0006
:1007c000909f9f00809f9f00f0979f00e0979f0061
:1007d000d0979f00c0979f00070037002144210059
:1007e00001005000000040006143210061007800da
:1007f000df98970001007000d09f9f008804780068
:1008000009047800384578008a00fb002044210064
:10081000470107000000e000f0ff3a00a1c2b3006a
:10082000814f55000e003a00cf8897000180e90003
:10083000c08f9f0010007800c09f9f000000e00064
:1008400005003d000000ea00c09f9f005f989700f0
:100850000020a000d09f9f000904e8000f0037008f
:10086000c09f9f000000eb0005003700f2ff27004b
:10087000820f5000020032006a01b900028040007d
:100880000904780088047800b900fb000103b10076
:10089000e98f5000f5ff3600c09f9f00e0c2b30013
:1008a000984f1000020032000080eb001900370062
:1008b000a0c2b300d84f100007003a00cf889700bd
:1008c0000180e900c08f9f0010007800a09f9f006a
:1008d0000804e800100037000000eb00a09f9f0014
:1008e0008800780005003700f3ff2700830f5000d1
:1008f000020032006a02b9000400410001047800dd
:10090000880078003101fb000203b100e90f5100bb
:10091000f5ff3600a09f9f00984478008900fb00f7
:10092000e0422100020107000000e0000200320066
:100930000804e800010037008044eb00c97f9f00f5
:1009400080c6b30080cf540004003a0098cf140052
:100950000a003a006640500006003700c0c6b300e7
:1009600080cf540005003a0098cf140003003a00ed
:1009700065404000c07f9f000804e8001801fb00ac
:10098000e3fb2f008f81410081f92f008f80400011
:10099000a0f92f000f004000f10007000000e00068
:1009a00009003a00e1fb2f008f804000a0f92f00e2
:1009b0000f004000f20107000000e00002003500d7
:1009c0000804e80061ff37000080eb004f05780065
:1009d0004f04be000080fa00000006006200fa002a
:1009e000889fbe008a1f7800000578008104780087
:1009f000020478008300780080f92f000f00400087
:100a0000c90007009a979f00a9979f000000eb007c
:100a1000b09f9f001885fb008a04fb000a05ea00ce
:100a20004f55de0050022000808f54000d00320030
:100a3000e10f55000b003a000a01780088007800a9
:100a40002f9097009f91970003000100a0979f00af
:100a50000000e0008e0032003f9897000000e800a0
:100a6000b09f9f000a04440050022000808f540071
:100a7000040032000900e000e6ff3a003f989700ca
:100a8000840037000000eb00909f9f00809f9f0034
:100a9000f0979f00e0979f00d0979f00c0979f001e
:100aa00007003700c1452100010050000000400050
:100ab0000145210061007800df9897000100700077
:100ac000d09f9f008804780009047800384578009a
:100ad0008a00fb00c0452100950007000000e000ef
:100ae000f0ff3a00a1c2b300814f55000e003a005a
:100af000cf8897000180e900c08f9f001000780028
:100b0000c09f9f000000e00005003d000000ea00db
:100b1000c09f9f005f9897000020a000d09f9f007b
:100b20000904e8000f003700c09f9f000000eb00a1
:100b300005003700f2ff2700820f5000020032004c
:100b40006a01b90002804000090478008804780036
:100b5000b900fb000103b100e98f5000f5ff36003a
:100b6000c09f9f00e0c2b300984f10000200320007
:100b70000080eb0019003700a0c2b300d84f10006e
:100b800007003a00cf8897000180e900c08f9f00de
:100b900010007800a09f9f000804e80010003700b4
:100ba0000000eb00a09f9f00880078000500370040
:100bb000f3ff2700830f5000020032006a02b900e1
:100bc0000400410001047800880078003101fb0036
:100bd0000203b100e90f5100f5ff3600a09f9f000e
:100be000984478008900fb008044210050000700f1
:100bf0000000e000020032000804e80001003700b5
:100c00008044eb00c97f9f0080c6b30080cf5400b2
:100c100004003a0098cf14000a003a0066405000e1
:100c200006003700c0c6b30080cf540005003a006c
:100c300098cf140003003a0065404000c07f9f0039
:100c40000804e800e3fb2f008f8141001841780081
:100c500081f92f008f804000a0f92f000f00400085
:100c6000030207000000e00009003a00e1fb2f004a
:100c70008f804000a0f92f000f00400040010700c6
:100c80000000e000020035000804e80061ff3700c2
:100c90000080eb004f0578004f04be000080fa0092
:100ca000000006000001780008003700810278008b
:100cb000354378000604e00002003a00008051004d
:100cc00000000600864f5200f9ff3a0082017800ca
:100cd000324278000404e000f4ff3a000080510042
:100ce00000000600000178000700370086cf5200a0
:100cf00002003a00008051000000060034437800f2
:100d00000604e000f9ff3a0082017800b242780060
:100d10000504e0000200320001027800f7ff37000e
:100d20000080510000000600010878000000060065
:100d3000020037000304e0000600320000017800e2
:100d400002007800b041780081cf5100f9ff3a00ed
:100d5000010037000001eb000200780000000600ef
:100d6000881f7800e4c6b300844f5100b6003200fb
:100d700010003c006b425200844f510018003200ba
:100d800005003c0054c2b300844f5100ee00320015
:100d900084c5b3000f00370044c6b300844f510030
:100da0001400320065424200844f5100e9003a00cd
:100db0001000370004c7b300844f5100d500320043
:100dc0005300350065424200844f5100500032000c
:100dd00063424200844f5100de003a004c0037006d
:100de0001181e90082087800f0009000124178003b
:100df000d600370020629000c5c6b300854f520070
:100e000007003a009102780064825200840878005a
:100e10001402be004fabde008603780011003700dd
:100e200015c7b300854f520003003200a5c6b300ba
:100e3000854f520006003a00910278006882520005
:100e4000840878005403be004402be000500370049
:100e50001182e9008408780014027800cfa2de0035
:100e6000612bb9000498be000690be00a0609000ff
:100e700088c6b30088cf50000d00320028c6b300ea
:100e800088cf500004003a000402fb00cfa2de002d
:100e9000612bb9000800370048c7b30088cf500065
:100ea000030032006644440088cf500004003a003a
:100eb000cfa2de00612bb9000498be000690be00f0
:100ec0003002be002003be00f0009000e00f520090
:100ed000e08f5a00e00f5b00e08f5b0002003d00f6
:100ee000d4c2b30008003700001290000418a30019
:100ef00002003200b4c2b300030037000408a300ac
:100f00004c00320004c2b30084f17800470037007f
:100f100020629000c5c6b300854f520006003a001b
:100f20009102780064825200840878001402be00a6
:100f30006033b8001100370015c7b300854f520069
:100f400003003200a5c6b300854f520006003a00e8
:100f50009102780068825200840878005403be0031
:100f60004402be00050037001182e90084087800c1
:100f7000140278008002eb006033b8000498be00d1
:100f80000690be00a060900088c6b30088cf5000d5
:100f90000d00320028c6b30088cf500004003a008c
:100fa0000482fb008002eb006033b80008003700c9
:100fb00048c7b30088cf50000300320066444400a5
:100fc00088cf500004003a008002eb006033b80084
:100fd0000498be000690be00801090000138a30067
:100fe000140032003002be002003be00e00f5200a9
:100ff000e08f5a00e00f5b00e08f5b000d003200d5
:1010000081c7b300814f51000300320081c5b30096
:10101000814f510007003a00f000900004c3b30074
:1010200084f178008100e80082f178008100e80016
:1010300071009800f00090008181410063009800e9
:10104000824078003e003700a0619000c4c6b30023
:101050001181e90084cf5100220032000a003c00d7
:101060006442520084cf51002500320004c2e800df
:1010700084cf5100130032006842520084cf5100e7
:101080001e003a000a00370044c7b30084cf510065
:101090001b0032006642420084cf5100180032002b
:1010a0006942520084cf510014003a000500370015
:1010b00082087800920078004058900080487800bc
:1010c0002c0037008208780092007800600a9000b7
:1010d000cfa2de00612bb9008498be008690be00ce
:1010e00024003700820878009200780060099000a0
:1010f000cf91de008288be001e0037001181e9001a
:1011000082087800920078006008900080087800db
:10111000180037001181e900820878001202780077
:10112000cfa2de00612bb9000498be000690be007d
:10113000f0009000818141006300980081c7b300f6
:10114000300207000b003700f000900082f17800b9
:1011500006003700f0009000818141000204e000a9
:1011600001003a0052c2b300824978008100e800d1
:10117000710098000000eb004f04780000000600aa
:101180000400fa00889fbe008a9fbe008c1f780072
:101190000004780001067800f80d900078009000b7
:1011a000808555000808900080855500180890003b
:1011b00080855500280890008085550038089000eb
:1011c0008085550048089000808555000002220067
:1011d00090bf9f0000032300a0bf9f000810900055
:1011e0000028a30015003a000b00e00013003400b3
:1011f0000b0578008a047800e20f550001003600e4
:1012000029002000c801900009017800ee805700f5
:101210005800900003000100500498000000e00016
:101220008c0032006808900009004000600c9800b3
:10123000090555004240a900eeff3c0078019000ee
:101240000200e0000c003400c80190008c0078001f
:101250005800900003000100500498008080eb00cb
:101260000000e0007c003200e80890007800900068
:1012700000804000600c9800880c90000900e0009d
:101280001100340009057800e28f54000100360097
:101290002a002000c80190000a017800ec80570065
:1012a0005800900003000100500498000000e00086
:1012b00068003200680890000a004000600c980046
:1012c0008a845400edff3700180990000200e00006
:1012d0000c003400c8019000e80090005800900015
:1012e00003000100500498008080eb000000e00043
:1012f00059003200e8089000180890000080400073
:10130000600c9800a80c90000900e0001100340067
:1013100009057800e28f5400010036002a00200001
:10132000c80190000a017800ec8057005800900036
:1013300003000100500498000000e0004500320066
:10134000680890000a004000600c98008a845400ed
:10135000edff3700380990000200e0000e00340075
:10136000e80090001808900080804000c8019000bc
:101370005800900003000100500498008080eb00aa
:101380000000e00034003200e808900038089000c7
:1013900000804000600c9800c80c90000900e0003c
:1013a0001100340009057800e28f54000100360076
:1013b0002a002000c80190000a017800ec80570044
:1013c0005800900003000100500498000000e00065
:1013d00020003200680890000a004000600c98006d
:1013e0008a845400edff3700081090008000eb0065
:1013f0000028a300180032000b00e00016003400a3
:101400008b04780009057800e28f54000100360053
:101410002a002000c80190000a017800ee805700e1
:101420005800900003000100500498000000e00004
:1014300008003200680890000a004000600c980024
:101440008a8454004240a900eeff3c008000eb007b
:10145000010037008080eb00010078004f06780023
:101460004f05be004f04be000080fa0000000600d9
:10147000889fbe008a1f78000004780082447800ac
:101480000305780070c6b30080cf540021003c00f3
:1014900000c0e90080cf5400cd003d0072405000f4
:1014a00080cf5400340132000d003c006c405000ed
:1014b00080cf540047013c0000c0e90080cf5400b9
:1014c000c3003d0050c2b30080cf54003e01320043
:1014d0007c40400080cf54003e013a00bc00370001
:1014e00010c6b30080cf5400b900320004003c00a5
:1014f0006940500080cf540036013a006600370042
:1015000030c6b30080cf5400180032000040e8001d
:101510000900370000c7b30080cf54000801320033
:1015200008003c0000c0e90080cf5400d100320028
:1015300059003c006540500080cf540025013a001e
:101540000f00370050c7b30080cf54005200320064
:101550006340400080cf54004f003200654050008f
:1015600080cf54001b013a00030137001181e900cc
:101570008208780078009000127578001b0137000f
:1015800028609000c2c6b300824f500007003a00a6
:101590001101780064005100800878001000be003e
:1015a0004f89de00820178001100370012c7b300b6
:1015b000824f500003003200a2c6b300824f500099
:1015c00006003a0011017800680051008008780098
:1015d0005001be004000be00050037001180e90048
:1015e0008008780010007800cf80de006109b90023
:1015f000009cbe000294be002862900085c6b30025
:10160000854f52000d00320025c6b300854f5200b1
:1016100004003a000000fb00cf80de006109b90041
:101620000800370045c7b300854f52000300320061
:10163000e6c24200854f520004003a00cf80de002f
:101640006109b900009cbe000294be003802be00d1
:101650002803be0078009000d1c2b300e00f520012
:10166000e08f5a00e00f5b00e08f5b000800350060
:10167000881090000118a30002003200b1c2b3002c
:10168000030037000108a3004c00320001c2b30080
:10169000017578004700370028609000c2c6b3008b
:1016a000824f500006003a0011017800640051009a
:1016b000800878001000be006011b80011003700eb
:1016c00012c7b300824f500003003200a2c6b3001d
:1016d000824f500006003a00110178006800510066
:1016e000800878005001be004000be0005003700b1
:1016f0001180e90080087800100078008000eb007d
:101700006011b800009cbe000294be0028629000e8
:1017100085c6b300854f52000d00320025c6b300c8
:10172000854f520004003a000080fb008000eb006f
:101730006011b8000800370045c7b300854f52005c
:1017400003003200e6c24200854f520004003a0016
:101750008000eb006011b800009cbe000294be0047
:10176000081090000038a300140032003800be00ba
:101770002801be00e00f5000e08f5800e00f590034
:10178000e08f59000d00320080c7b30080cf5400b5
:101790000300320080c5b30080cf540007003a0038
:1017a0007800900001c3b300017578000000e800e4
:1017b000097578000000e800700498007800900037
:1017c000000545006a0498008940780067003700ea
:1017d00028619000c0c4b300804f510006003a0059
:1017e0001101780068005100800878005001be00a7
:1017f0004000be0005003700110178006400510070
:10180000800878001000be00f3050700009cbe00b1
:101810000294be00b8009000780090000100e00043
:1018200002003d00d1c2b3000800370088109000cc
:101830000118a30002003200b1c2b3000300370058
:101840000108a3000400320001c2b3000175780052
:101850000000e80070049800780090000005450042
:101860006a04980089407800080078009401070015
:101870006000370028619000c3c6b3001180e90002
:10188000834f5100220032000a003c00e4c15100a5
:10189000834f51002500320083c1e800834f51007f
:1018a00013003200e8c15100834f51001e003a007e
:1018b0000a00370043c7b300834f51001b003200ba
:1018c000e6c14100834f510018003200e9c15100c8
:1018d000834f510014003a0005003700800878005b
:1018e00010007800485c90000848780041003700fc
:1018f0008008780010007800680a9000cfa2de000f
:10190000612bb9000498be000690be003900370074
:10191000800878001000780068099000cf91de0000
:101920000288be00330037001180e900800878008b
:1019300010007800680c9000080878002d0037002f
:101940001180e9008008780010007800cf80de0068
:101950006109b900009cbe000294be0078009000ae
:10196000000545006a04980081c7b30008007800ac
:10197000240007001f0037001180e900800878006c
:10198000100578006a049800d80c90000900e00067
:1019900004003d000a007800f7fa07008004780090
:1019a00007003700090178008000eb000a0078008a
:1019b0003c0307000000e000010032008a045000f0
:1019c000190c98000b00370078009000097578001a
:1019d0000600370078009000000545000904e0008b
:1019e00001003a0059c2b300094d78000000e80038
:1019f000700498000000eb004f0578004f04be0013
:101a000000000600fc874700889fbe008a9fbe003a
:101a10008c9fbe008e1f78000006780080c5b30042
:101a200080cf50000a0032007740400080cf500045
:101a30000a0032006940400080cf50000b003200a5
:101a4000d041210080bf9f00ae0020000a00370077
:101a5000c240210082bf9f0006003700d341210011
:101a600083bf9f008e00200003003700d441210077
:101a700084bf9f000e0120003c02be002c03be006c
:101a80000605be000404be0040c6b30080cf50006f
:101a9000030032006540400080cf50000b003a0048
:101aa000e00f5200e08f5a00e00f5b00e08f5b0018
:101ab00006003d006000b8006011b800040450004a
:101ac000858458000605590087855900e80f57009e
:101ad0000400320040002000f00f570038003a00a8
:101ae0000100370030002000e00f5400e08f5c0060
:101af000e00f5d00e08f5d0004003a00dc0890001c
:101b00008d0120000100e000060032008e00e90097
:101b1000888060008fba9700e5c07800f1ef9f00e1
:101b20007d012000800078008100e900050033007d
:101b30008b05d1000a85d3008984d3000884d300a3
:101b4000f9ff3700089ebe000a96be00120037005b
:101b50008d06e9008e00e900848060000fb99700cf
:101b6000e2c1780082fd2f000f01410003f17e00e9
:101b7000800078008100e900050033008783d100f0
:101b80000683d3008582d3000482d300f9ff370097
:101b9000049ebe000696be003c02be002c03be00a2
:101ba000e00f5200e08f5a00e00f5b00e08f5b0017
:101bb0008b0034000d00e000e5ff3c00880037009a
:101bc0002c60900081c6b300814f50000b003200a2
:101bd00006003c000004e00008003200e6c05000af
:101be000814f50004e003a0004003700c1c6b300d8
:101bf000814f50004a003a00210037000800e00001
:101c000004003a005c0890008d0120000000e00014
:101c100006003200110009000e84d8000fb99700a9
:101c2000e2c07800f1ef9f007d0120001100090063
:101c30000e84d8000a003700110009000e04d800f5
:101c40008d06e9000e81b900020454008fb8970098
:101c500061417c0081fd2f008f80400082f07e007a
:101c6000000478000800e000020032000d00e000ef
:101c7000f1ff3c00cfc4de00614db9002500370004
:101c8000e00f5400e08f5c0004003a005c08900014
:101c90008d0120000000e000070032006171b900f2
:101ca0000800be00eb0407008fb99700e3417800fd
:101cb000f3ef9f007d0120006171b9000800be00b4
:101cc000e70407000b0037006171b9000800be008f
:101cd000f30407008d06e90000f1b9000204540086
:101ce0000fba9700e4427c0084fd2f000f024200ef
:101cf00005f27e000004be00e00f5000e08f5800a7
:101d0000020032000d00e000efff3c004fcdde008e
:101d10008a057800089ebe000a96be003000370093
:101d2000e00f5400e08f5c00e00f5d00e08f5d008d
:101d300004003a005c0890008d0120000000e000e3
:101d4000090032006172b900612bb9000800be00c1
:101d50000a01be00500507000fba970064427800e0
:101d6000f4ef9f007d0120006172b900612bb90082
:101d70000800be000a01be00400507000d00370044
:101d80006172b900612bb9000800be000a01be00f3
:101d9000450507008d06e90000f2b900040454006f
:101da0008fba970065427c0085fd2f008f8242002c
:101db00084f27e00009ebe000296be003c04be007f
:101dc0002c05be00e00f5400e08f5c00e00f5d00ca
:101dd000e08f5d00020034000d00e000e8ff3c00f1
:101de000e80f570010003a000c1090000038a300d4
:101df0000d003200f78f560006003e0085fd2f00d3
:101e00008f824200e5c07e0000c3b30080cf500047
:101e1000050032008d06e90002c3b30081fd2f00ea
:101e20008f80400082f07e0078811600120e9800ac
:101e30006c00900083fd2f008f8141008d80410058
:101e4000fdf907001c089000dc089000810f50008d
:101e500006003d0000805000000e98000c1090001d
:101e60000040a100001698000f0037000100e000bc
:101e70000d003d008c109000f4806000f08f500049
:101e800009003a007c099000fc009000810051009c
:101e90000c09900082805000008050004240a90050
:101ea00001003400000e98004f0778004f06be0076
:101eb0004f05be004f04be00cf01b1000000060078
:101ec000cf04b000889fbe008a9fbe008c9fbe00da
:101ed0008e1f780000067800814678003c00be0026
:101ee0002c01be00d0979f00e1979f00f2979f00c2
:101ef000839f9f0010c6b30080cf560012003200af
:101f000010c4b30080cf56000f0032005c08900070
:101f10000000e00002003d006000200009003700e2
:101f20000000e00008003a0070c6b30080cf560001
:101f30000300320070c4b30080cf560002003a00a4
:101f400010002000500e98008c00780080fa2f00be
:101f50000f004000dd010700e20f50000f003a00c3
:101f600030002000100e98004028210011c6b30058
:101f700081cf560019003200e4c0400081cf5600e6
:101f800016003200802821008140e80081cf5600f1
:101f900012003a0040282100100037000000e00045
:101fa0001400340030002000100e9800c0282100da
:101fb00011c6b30081cf560008003200e4c04000d3
:101fc00081cf560005003200002921008140e80041
:101fd00081cf560001003a00c0282100ec0090009b
:101fe000b0487800b06878001040780090409800c1
:101ff000a601370011c6b30081cf5600030032009e
:1020000011c4b30081cf56000e003a00ec009000de
:1020100002c3b300825878006106980082c5b300fd
:1020200013c6b30083cf560001003a0082c7b30045
:102030008258780061069800fc0090008180e800da
:10204000710698000000e00005003a00c0979f006c
:102050008001eb0022fb2f000f01410087013700b8
:1020600010c6b30080cf56000600320010c4b30083
:1020700080cf56009a003a00512a2100d1b79f0024
:102080000200370042292100d2b79f005c0890006f
:102090001b0220000000e000010035008005e80080
:1020a0000b05e8006022b8006033b8005f9097002d
:1020b000ef9097007f9197008f999700fb0407009e
:1020c000000278003c00be002c01be000400e000cd
:1020d00001003d0003f0a200d0979f00e1979f0010
:1020e000f2979f00839f9f00cf919700e48151005a
:1020f000c3979f000040eb00a0779f003efb2f009e
:102100000f07470031003700c20120000300200004
:10211000a0fa2f000f004000960107005f90970083
:10212000ef9097007f9197008f99970090b79f004d
:10213000a1b79f00b2b79f00c3b79f00e00407009c
:102140000004be00670555004240a9000c003400a1
:10215000070507000002be000203be001fb0970083
:10216000afb097003fb19700cfb1970003050700cc
:10217000d0979f00e1979f00f2979f00839f9f0059
:102180006707470070002000050037006f67640094
:10219000cc48dd004444de0008847000c4ccde007e
:1021a000e00f5400e08f5c00050034000000e900ff
:1021b000e10f4000f5ff3a00010037000067eb0037
:1021c0000000e900fdff3b00670747000a00e00050
:1021d000090034006022b8006033b8005f909700b7
:1021e000ef9097007f9197008f999700e504070083
:1021f0000000e000c4ff3c0032fb2f000f01410053
:10220000020757008e0178008b0f57000100340041
:102210008b0178000300e0002b0035000040eb004c
:102220008e8f51000a003d0082fa2f000f014100fd
:1022300003004100b0489000f0c0b300e7cf500069
:1022400003003c000040eb000100370081017800f2
:102250008300e90034fb2f000f024200010142001d
:1022600012427800804f5200f8ff3200ef4f5000ca
:1022700001003a000449e8000100e00007003d00c9
:102280008301e8004f90970064004000c0979f00d2
:1022900022fb2f000f0141000200370032fb2f000c
:1022a0000f0141000300780005003700e24078008c
:1022b0008100fb005fb29700e4c0780001717800f4
:1022c0000000e900f9ff3b005c0890000000e0001e
:1022d000ea003d000300e900500e9800e7003700d7
:1022e0005f949700ef9497007f9597008f9d9700dc
:1022f0006022b8006033b8000800be000a01be00ca
:102300006a0407000000e00005003d000bf0a20099
:10231000d8979f00e9979f00fa979f008b9f9f0097
:1023200070592700cf9097000088b900026a2800f2
:10233000130020005a03070064045000c8979f0050
:1023400015003b0063041400c0ff2f00000464006c
:102350000800ea00c0979f005f909700ef909700f9
:102360007f9197008f9997006a2b21000700370013
:102370000808a300030032003a02be002a03be0090
:10238000850407000884d100680545000800e000c6
:10239000f7ff3c001a0037000800e0001c00320084
:1023a000c0ff2f0000046400c8979f006a2b210023
:1023b0006000b8000200200003ff23000700370080
:1023c0000808a300030032003a02be002a03be0040
:1023d000710407000884d100680545000800e0008a
:1023e000f7ff3c000002be000203be005f909700b2
:1023f000ef9097007f9197008f999700db0407007b
:10240000d0979f00e1979f00f2979f00839f9f00c6
:102410005c0f900060c6b30080cf5600040032000d
:102420006000200061c4b30081cf560002003a0072
:10243000cf9097006a8040000e074000f30f5700ce
:10244000010034003e01200000c3b300a0779f00cc
:102450003bfb2f008f854500350037005fb09700ac
:10246000efb097007fb197008fb997001404070071
:102470000004be00680757004240a9001000340065
:102480003b0407000002be000203be005fb09700dd
:10249000efb097007fb197008fb99700370407001e
:1024a0006022b80046782d00771924003a0407000e
:1024b000d0979f00e1979f00f2979f00839f9f0016
:1024c000e88545008a0020000801be000c003700a6
:1024d000a400200005002000a0fd2f000f004000f8
:1024e0001f0107005fa89700efa897007fa997003a
:1024f0008fb1970004c3b300846541000001be00a2
:10250000e00f5100e08f5900060034000a05e90091
:10251000e10f4500eeff3a000200370000c3b300b0
:10252000806578000a05e900fcff3b00e88545006e
:102530000e00e0000d0034005f909700ef909700d0
:102540007f9197008f999700d0b79f00e1b79f00c8
:10255000f2b79f0083bf9f006022b8006033b800cd
:10256000080407000000e000bcff3c0031fb2f0026
:102570008f804000818555004f9197006700410092
:10258000c0979f00020037008b05e9000000e900ba
:10259000010178008200780003c3b300b1cf1100bd
:1025a000f9ff3200c0979f00dc09900061c6b300bc
:1025b00081cf56000300320061c4b30081cf5600c2
:1025c00002003a000000e800090037001000200077
:1025d00051c6b30081cf5600050032000d4078008f
:1025e00050c4b2000080fb000000e9004f00de0094
:1025f000830140008b8f5100010034008b01780073
:102600000300e0001d00350000c3b3008b8f5100b4
:1026100006003d0062c279006940400041c3b3003a
:10262000814f520001003c00694050008300e900e6
:102630008100410001003700840178000302e900b5
:1026400001037800a142780080cf5200faff3200e7
:1026500091c3b300814f500001003a00054be800e0
:102660000400e00005003d000201e9008301e800ec
:102670004f9297000402e800c4979f004f92970082
:102680008d4078000c007800ca0007004f077800e2
:102690004f06be004f05be004f04be00cf04b10080
:1026a0000000060003003700b0cf10000500320024
:1026b0000201e900800178000200e000faff3a0020
:1026c000000005000300780000000600889fbe009f
:1026d00000047800e68440001900d0004500de00c8
:1026e000f27f2000820f500010003a00000ceb0037
:1026f000990478006f816400200020001b003a00dc
:10270000210190000200e00018003a001101900041
:102710000200e00015003a00100020001100e00067
:102720001200320020002000100037000000e000fe
:1027300004003a0001007800d00107000000e0002a
:1027400008003c00f20028001901610001fe23008e
:10275000810c710021c02f00010c40000080eb00b3
:1027600002003700000ceb000000eb004f04be003d
:10277000000006000400fa00889fbe0000047800f4
:10278000e6044400190078008000d000c508de008f
:10279000f47f2000848f50000e003a00ef006000ac
:1027a000200020006b003a00a80090000100e0002b
:1027b00068003a00980090000100e00065003a00cf
:1027c000100020001800e00062003200200020000d
:1027d000600037000100e0000a003a0008007800bd
:1027e000c2bf9f00d3bf9f00a401070080007800f4
:1027f0000000eb004fb99700dfb997000100e0003f
:1028000054003c004f88de000281400083014800f4
:10281000e07f2000800f5100e08f59000d00340050
:102820001900e00004003d006000b8000200200034
:1028300003ff2f00030037006000b80002002000f3
:1028400003ff2700009cbe000294be001000200081
:1028500040003700e00f5100e08f590005003400c0
:102860004411dd00f000280019006000800c7100a8
:1028700037003700190078000400280004026000c7
:102880006f0060000040a000800c7800d0fc2f009a
:10289000f1ff2f00800f5100818f590006003d008d
:1028a000840c78000000eb002004980010049800cd
:1028b000000ceb00270037006f01410006003700d5
:1028c00008007800500c7800e400440011087800fb
:1028d00099087800800ceb007000510070014100f5
:1028e00001fe2f0082804000ef8f4000f4ff350092
:1028f0000000ea0015003200880078007001100026
:10290000d1027800822add00980178008019de006b
:10291000038c72006404440098027800822add006f
:10292000910178008019de00838872009900780098
:102930000209dd00980078008008de00010c7100bb
:10294000990078000008de00800c7800990c720075
:102950000080eb004f04be000080fa00000006007b
:10296000881f78008a9fbe008c9fbe0000047800fc
:102970000205be000406be000401be000a00be003f
:10298000c7010700008cbe000c01be00d103070088
:102990000005550081855d002a0498003b049800dd
:1029a000080078004f06be004f05be004f047800b7
:1029b00000000600f0874700889fbe008a9fbe0087
:1029c0008c9fbe008e1f7800000478008144780040
:1029d0000205be00040678000b00e00002003c0087
:1029e0001b0020000a47210060c6b30080cf5400be
:1029f0000e00320060c4b30080cf54000b003200e0
:102a000070c6b30080cf54000300320070c4b3001e
:102a100080cf540099003a00e40f46007f00350053
:102a200058089000800f56007c003d000c06e8001e
:102a300060c6b30080cf54001000320060c4b30001
:102a400080cf54000d003200081090000038a30021
:102a500004003a0058089000808f550001003d00a6
:102a60005b0c9800580890000c005000500c980027
:102a700002003b000000eb00500c9800180890008a
:102a8000e80090000c00e00026003c0002c3b30008
:102a9000827078000000e800100c9800d8089000c0
:102aa0000100e00003003c00881090000138a30002
:102ab00005003200e8009000e2c2b30082707800a6
:102ac0000000e800100c9800580890008c00ea0004
:102ad000810f500001003d000006ea008c00ea0072
:102ae000210c9800000646005c0c98008b0f5600e5
:102af000010034000b0678003c0c9800e8009000c0
:102b000018089000008040000c0178008a007800ce
:102b1000c9f60700580890000c0650004c0c9800ad
:102b2000be0037008c8f550018003d00008040002b
:102b30000b0178008a007800bff6070018089000a3
:102b400000804500100c98008b0556002b0c980057
:102b5000d80890000100e00003003c0088109000bd
:102b60000138a30006003200e8009000e2c2b30082
:102b700082707800380890000000e800300c98005f
:102b800058089000400c9800a400370000804000d6
:102b90000c0178008a007800a7f60700180890005a
:102ba00000004600100c98008c855500d808900055
:102bb0000100e00003003c00881090000138a300f1
:102bc00005003200e8009000e2c2b3008270780095
:102bd0000000e800100c980058089000808f550005
:102be0000100340080057800e8009000180890008b
:102bf000008040008c0045000b0178008ef6070035
:102c0000180890000b004000100c98005808900025
:102c10008b0550002b0c98008000370070c6b30065
:102c200080cf54000300320070c4b30080cf540042
:102c300012003a0058089000808f550004003d00b3
:102c4000081090000038a30001003a005b0c9800c7
:102c5000580890000000e900500c980002003b006a
:102c60000000eb00500c980070c6b30080cf5400f9
:102c700009003a0059c6b3000c00370010c6b30073
:102c800080cf54000600320010c4b30080cf54003f
:102c900006003a000400370059c4b30003003700af
:102ca00009c7b3000100370009c5b3001808900038
:102cb000e80090009a7078000000e800100c98007e
:102cc000d80890000100e00003003c00881090004c
:102cd0000138a30005003200e8009000e2c2b30012
:102ce000827078000000e800100c980058089000ee
:102cf0000000e000100034008b05e900808f5500d3
:102d00000100340080057800e80090001808900069
:102d1000008040008a00e8000b01780046f60700ba
:102d2000180890000b004000100c98005808900004
:102d30008b0550002b0c9800e800900018089000bc
:102d400000804000095878000005e8000c00e00011
:102d500004003500b1c2b300014878008a0678004b
:102d600004003700d1c2b300014878008a06780019
:102d70000c06ea00fd8557000007eb00090037004c
:102d8000a20020008c0078007280570087000700a6
:102d90007fb097008fb89700816d780000067800ab
:102da0000e07e8000c00e000f5ff3c00e10f5700c3
:102db00013003c0050c6b30080cf54000300320023
:102dc00050c4b30080cf540003003a008a06780054
:102dd00000c3b300805e78000e00e00008003a00f7
:102de00000c3b300805e7800050037000e07e900dd
:102df000fc80570061407f0002c3b300825e400048
:102e00000e00e000f9ff3c00e80090001808900078
:102e100000804000808656003d0c9800081090000d
:102e200074006000f00f50000e003a009808900007
:102e30007800900000804000a80890000100400049
:102e4000b808900001004000c80890000100400050
:102e5000f8089000810f500002003d0000805000f3
:102e6000000c98004f0778004f06be004f05be00cb
:102e70004f04be000f01b10000000600e600400054
:102e80001101780005002800850261006f016100d2
:102e90008208780002003200120020001100370082
:102ea000a0019000120020000300e0000d003a0095
:102eb000900190000300e0000a003a001000e000da
:102ec00008003a0036003700640340009608780096
:102ed00080017800530b780090097800040878008e
:102ee00070015100110278000400e000f6ff32008a
:102ef0001300370064024000140378004f33de00f3
:102f0000838141008308730080017800d303780037
:102f1000cf3bde001403780006034300068a7300eb
:102f20001302780004024200100378004f33de00e1
:102f30008609720090017800038841000201e900cf
:102f400091017800ef8f5100eaff36001000370042
:102f500080017800530378004f33dd001002d10068
:102f6000040873006402400094037800cf3bdd0046
:102f70001303d10086897300110378004f33dd00fd
:102f80009401d100030a73009108d1000201e80006
:102f900091017800ff8f5100edff3e00ef88610046
:102fa000918872000200780000000600800278001c
:102fb00001037800110009000203d80080017800a5
:102fc000830a78000299b900020153009202980026
:102fd0000500780000000600810378004302070026
:102fe0000001be006000b8000478a30013003a009e
:102ff0006220e10015003e000d0039008301d10080
:103000000281d3008180d3008301d1000281d300eb
:103010008180d3008301d1000281d3008180d3005d
:103020000538b000c42add00f300b20083817200cd
:1030300007f0a70003f0a00000000600f3ff270040
:10304000f2ff2f006110b900fbff370003ff2700dc
:10305000f7ff3700020007000400be000000060072
:103060006022b800060220000000d0008180d2005b
:103070000482d2008582d2000000a0000202520029
:1030800083825a00030031000202420083824a0018
:103090000000a1000603e900f3ff3a00000006006b
:1030a000839f68000100e00002003d006000100006
:1030b000e08018000300e00002003d006001110004
:1030c000e0811900e6ff07004f00e00002003b002e
:1030d00060001000e080180000000600889fbe001d
:1030e0008a9fbe0030044200b0844a0030054b0085
:1030f00090854b006000b1000898be000a90be00a9
:10310000c100070002003100680040001008e8001c
:103110004f05be004f04be0000000600889fbe00a1
:103120008a9fbe003004be002005be000418540073
:1031300005985c0006185d0007985d0011002000ee
:10314000b1000700010039008000eb00108810007a
:103150004f05be004f04be00000006001200fa003a
:10316000889fbe008a9fbe008c9fbe00e0b79f0074
:10317000f1b79f0082bf9f0093bf9f000605be006e
:103180000404be000000eb00d0b79f00c0b79f0052
:10319000b0b79f00a0b79f0090b79f000006eb005c
:1031a0005fb19700cfb09700820141003fb0970018
:1031b0000200e00004003d00980007007e805700f8
:1031c000c6ff070003003700940007007e80570009
:1031d000d2ff0700dfb697000d00e0000c003500bd
:1031e0006fb29700ffb297000fbb97009fbb97008d
:1031f00010002000010020006011b80000027200e1
:1032000081827200020373008383730058000700f9
:103210000c06e80001042000810f5600e0ff3a0090
:103220000d00e00004003d000802be000a03be00dd
:103230007e805700a9ff07005fa897000000e0000c
:1032400005003a001fb29700afb297003fb3970056
:10325000cfb39700460007006fb09700ffb097000c
:103260000fb997009fb997004f06be004f05be00eb
:103270004f04be000080fa0000000600881f78009e
:1032800018002000881f7800b4ff07008f87e9002e
:103290004f04780000000600801feb00afff07001e
:1032a0008f87e90000000600889fbe008a9fbe004d
:1032b0003d00070007003d00400007001800200007
:1032c0004500070008003d002b0007000004eb004c
:1032d000050037000004eb003f00070002003d003e
:1032e0002500070018002000e4ff07000800e000a8
:1032f000010032003d0007004f05be004f04be0034
:1033000000000600889fbe008a9fbe008c1f7800c8
:103310002500070008003d00280007001c002000d1
:103320000820e10009a8e1000ab0e1000bb8e100c3
:1033300007003d00050037000006eb0026000700ef
:1033400003003d006044b8006055b8000c00070061
:10335000d1ff07000c00e00001003200230007004d
:103360004f0678004f05be004f04be000000060067
:1033700008000700000006006044b8006055b8006f
:103380000402540085825c0006035d0087835d00b3
:1033900000000600a4b79f00b5b79f00c6b79f0006
:1033a000d7b79f0000000600e00f5000e08f5800e4
:1033b000e00f5900e08f5900000006006044b8009b
:1033c0006055b8000000540081805c0002015d007f
:1033d00083815d0000000600e00f5200e08f5a007c
:1033e000e00f5b00e08f5b00000006006022b80089
:1033f0006033b8000000520081805a0002015b0077
:1034000083815b00000006000440e10005c8e10084
:1034100006d0e10007d8e100000006004f09de00f9
:1034200082817100b3b79f004f01de0081804000b0
:1034300082807000a1b79f008fb097004f09de0017
:10344000000040000200700090b79f007fa8970026
:103450004f01de00818040008280700081b79f00b4
:103460000d0007004f3ade0000004000040070002d
:10347000f0af9f00080007000402420085824a0066
:1034800006034b0087834b00c2ff07000802be0003
:103490000a03be00000006002fb29700bfb29700db
:1034a0004fb39700dfb39700000006008f1fd100d5
:1034b000230107008f87e9000000e00000000600fc
:1034c0001400fa00889fbe008a9fbe008c9fbe0039
:1034d0000004be000205be00680047000a90be005e
:1034e0000890be003f0107000070a7000bf0a1008c
:1034f000304320009e02900080825200b0fe2f00d8
:103500000028e10011003d00b0fc2f000028e10080
:10351000150034001e0990008e0890007e00900077
:103520000501b0000201d1008180d3000080d300ea
:103530008502e800fbff3a000b00e00064013b005d
:1035400060001000e080180061013700f0ff2f00dc
:10355000f1ff27000b00e0005d013b0001002800a7
:10356000000020005a0137006000b8005801370001
:103570004f89de00820178005a01370007f0a2006f
:1035800068013700809feb00ed0007008f87e9009e
:103590000000e000000006002800fa00889fbe003e
:1035a0008a9fbe008c9fbe0003866b00340107001b
:1035b0000028a30064003a000128a30067003a0035
:1035c0000008a30062003a000108a30065003a0069
:1035d0001e009000be08900081064000ed3fb10043
:1035e000f4805700ee019000111ab8008e09900087
:1035f000311bb8009e099000311cb800511db80065
:10360000f485570046000700fe0190003a000700cd
:103610008b85e8003e0007008e09900040000700ff
:10362000ee019000340007008b85e80038000700a9
:103630008e099000400007009e0990001b18b800fa
:10364000890440000a854800fe019000340007000c
:103650008b85e80038000700ee019000300007007d
:103660008e0990001b18b800890440000a854800a4
:103670000a98a30008003a000402420085824a002a
:1036800006034b0087834b0008044c0089844c00e0
:103690000a054d008d06e9008482720085027300e0
:1036a0004c3add0085027200010032001500200056
:1036b000443ade001400b2004538de00cb45dd00a0
:1036c0000b007000c540de00cb4ddd008b8070002c
:1036d0004549de00cb55dd000b017100c551de0010
:1036e0000d0378008c01070003f0a1000cf0a70087
:1036f00003f0a000f60037001b18b8008502400058
:1037000006834800e0834b0060044c00070037004c
:103710001b18b8000603400087834800faff3700f3
:103720001b18b8008703400008844800e0844c0060
:1037300060054d00000006001b18b800080440009a
:1037400089844800faff37000108a300dd003a0031
:103750005800be005801be00e3ff37000008a30078
:10376000d8003a0009047800f9ff37002800fa0071
:10377000889fbe008a9fbe008c9fbe0003866b00a0
:10378000bf0007006400e100440032006408e1006b
:103790004a0032006100e100460032006108e100a9
:1037a00049003200ec0647006000b8003d02be0050
:1037b0003d03be00f48657006011b8003d04be0012
:1037c0003d05be007d0320000b0037000000a00077
:1037d0008d06e900130032000402420085824a008f
:1037e00006034b0087834b000000400081804800a7
:1037f00002014900838149000802520089825a006f
:103800000a035b008b835b00f0ff3b000802420071
:1038100089824a000a034b008b834b008d06e90026
:10382000edff3a008482720086827200f707b200d0
:103830008782720001003200150020001e049000f3
:103840003e0b900006035400e63fb0000368a3005f
:10385000070032000000a7000500a0008301d1008e
:103860000281d3008180d3000080d3000603e800ea
:103870008301d1000281d3008180d3000080d30076
:103880000002eb000482d2002301070003f0a10034
:103890000cf0a70003f0a0008d0037006402470081
:1038a0006408e100870032003400be003401be002d
:1038b000f6ff37006108e100820032006011b800b5
:1038c0006000b800f1ff370003ff2700020020006e
:1038d000fbff3700020ab900001bb9000200b80064
:1038e000810042008100430000000600c70ade009c
:1038f000f107b200f50fb20008003200e1cf42003c
:10390000020032000170a00024000500810f700049
:10391000010032000408050044000500810f70001a
:1039200002003a00140005008502e9000000400092
:1039300081c04800fcff3b000170a000240005008e
:10394000889fbe008a9fbe008c9fbe000404be00fc
:103950000605be00809fbe00829fbe001a010700c0
:10396000040678000800be000a01be001601070028
:10397000840678004f03be004f02be008d4f7600d4
:103980007fb0970013003300f0ff2f008b8f6b0088
:1039900006003b000d0666000c00a7000a00370079
:1039a00007f0a600100020000a003700880f520020
:1039b000898f5a008a0f5b008b8f5b0003003900f0
:1039c0001000200001003e000000200007f0a700ca
:1039d0000000ea004f06be004f05be004f04be00c7
:1039e00000000600800078005002be005003be00b8
:1039f0004439de00f700b200f37f200003016100cc
:103a0000090032000218e10016003a008501720038
:103a100083017300838173000008200015003a00c1
:103a200040002000130037008501720083017300fd
:103a30008381730005003a0004a8be0006a8be00fa
:103a4000100020000b0037000201e90004024200d0
:103a500085824a0006034b0087834b000748a3007a
:103a6000f9ff32000740a00004a8be0006a8be006f
:103a700020002000800098009200980000000600be
:103a8000680447000294be000094be00fc04470096
:103a90008694be008494be0009007800d1ff070020
:103aa00008007800cfff070099007800814f700070
:103ab0000b003b000800be00d50007004f00b1001e
:103ac00003003700f3ff2700f2ff2f006110b90059
:103ad0004f06be004f05be004f04be000080fa0036
:103ae00000000600881f7800030478000300e0004f
:103af00007003d0060001000e08018006001190020
:103b0000e081190002003b0001f02d0003003700a6
:103b1000cd00070008f0a70003f0a0004f047800d4
:103b2000000006002800fa00889fbe008a9fbe00a1
:103b30008c9fbe0007067800878669000c003b005a
:103b4000030478008704780008f0a10009f0a100c0
:103b5000840f5000858f5800860f5900890f5c0034
:103b6000030033000cf0a20001003a000cf0a100a9
:103b7000c3ff07006400e1005f00320078014700e6
:103b80006408e100610032006c0147007485570051
:103b90003200be001201be003a04be001a05be008b
:103ba0001e039000be0a90008503530006003d00ee
:103bb0000004fd008104fd000205fd008305fd00f9
:103bc0008703ea00050378000df8a3000400320023
:103bd00060041400e0841c0060051d00e0851d00e9
:103be0006022b8007d0320000d38e1008006eb0064
:103bf0000b0039004433dd00f300b2008301730091
:103c000039003700848272000d027800e1066400fa
:103c10008b85d1000a85d3008984d3000884d30022
:103c20008703e900f7ff3b00080040008980480057
:103c30000a0149008b81490004003b00600010002c
:103c4000e080180060011900e08119000358a3000a
:103c5000090032008d82720084827200610260006d
:103c60008301d1000281d3008180d3000080d30082
:103c70000603e8001b0037000348a30017003a00c2
:103c80000600e000170034000603e9000d00a30061
:103c900000004800818048000201490083814900fa
:103ca0000348a3000f003a000600e00009003400ba
:103cb0000603e9000000400081804800020149003d
:103cc0008381490001003a000003eb000348a30090
:103cd000f5ff32006022b8000200370084827200d3
:103ce000618266000c00070003f0a1000cf0a70041
:103cf00003f0a00076ff3700640147006408e1008c
:103d000002003a000df8a3006eff3a003200be0038
:103d10001201be006eff370018002000570020007f
:103d2000080453000d003d000600200097fc2f0002
:103d30000740e1001e0034008482720061026000ce
:103d40008301d1000281d3008180d3000080d300a1
:103d50000804e800f8ff3a00470020006104600012
:103d600005047400040464000d003200610040008a
:103d7000e080480060014900e081490003b8a500e7
:103d8000070032000603e8006538e10004003a004d
:103d90008301d1000281d3008180d3000080d30051
:103da000f87f20000830e1000300350008037800a8
:103db0006000b8006011b8004433dd00f300b200c9
:103dc000830173000000060005ff270005826100e3
:103dd000070032000428e100010032002400050041
:103de0000600070001003a00440005000408050031
:103df00002000700f9ff3a00140005006f8261001d
:103e000081027000850271008502720000000600c8
:103e1000e48240001078a3000700320064024000f2
:103e20001178a3003400be001401be00040032006b
:103e30000330a700000006003500be001501be00db
:103e40000330a00000000600889fbe0000827000c2
:103e50000402710004827100240032003643200005
:103e6000c50020008383cf000a0039000541b1005e
:103e70008283cf00070039000541b1008183cf0064
:103e8000040039000541b1008083cf0001003900f2
:103e90000541b10085c353006022b8001200320012
:103ea0000a003b0084827200610260008301d1003d
:103eb0000281d3008180d3000080d3000603e80094
:103ec0008743e800f7ff3a00070037000000400092
:103ed0008180480002014900838149000603e9000e
:103ee0008743e900f9ff3a008bff07004f04be004b
:103ef00000000600f1fd2f0061006000023a800022
:103f0000828060004500dd0081007000013a880079
:103f10000000060084e0a900e7006000f2ff28002e
:103f2000cc08dd00330580000301610068006000fb
:103f3000028170004300de003205880061006000ed
:103f4000f1f72f004700dd00a204800082806000ae
:103f500081007000a10488000000060094e0a90020
:103f600011e1a90084e0a9000000060010128800f9
:103f70002112880002128800000006009540a90066
:103f800041e2a9008540a9000000060021e2a90045
:103f90009560a9009580a9008560a9008580a90089
:103fa000000006008560a900e70060008580a90088
:103fb000cc08dd0000017800f3ff28000207b20002
:103fc00044058000848161004411de00838170001b
:103fd000e800600043058800c308de0083ff2f006f
:103fe000e18060005405800084816100cb08dd0021
:103ff000830171000008b20053058800f27f2f0092
:104000004700de00a304800003016100610060003e
:10401000028170004c00dd00a2048800f1ff2e0038
:10402000a40480008480600081007000a1048800e6
:10403000000006004211880000118800111188005c
:1040400001003700301180002202ab00fdff3a0072
:104050008560a90000000600001020002202b600c2
:104060000000e9004f00de000000060001118000a2
:10407000e6806000e68f500001003200f00fb200d1
:10408000201188000000060031e2a90097c0a900b5
:1040900097e0a90087c0a90087e0a90000000600fa
:1040a00087c0a900e700600087e0a900c808dd001c
:1040b00000017800f38f2f000207b2009405800002
:1040c000848161004811dd0083817000e800600098
:1040d00093058800c308de00f3ff2800e18060003c
:1040e0009405800084816100ce08dd0083017100a9
:1040f0000008b20093058800f2ff2b004700de00a5
:10410000b30480000301610061006000028170005f
:104110004f00dd00b2048800f1ff2700b4048000e6
:104120008480600081007000b104880000000600f7
:10413000c2118800801188009111880001003700a9
:10414000b01180003202ab00fdff3a0087c0a90029
:1041500000000600001020003202b6000000e90056
:104160004f00de000000060081118000e680600044
:10417000e68f500001003200f00fb200a01188005d
:104180000000060051e2a9009e40a9009e60a9001f
:104190008e40a9008e60a900000006008e40a90094
:1041a000e70060008e60a900c808dd00000178000b
:1041b000f38f2f000207b200640680008481610043
:1041c0004811dd0083817000e8006000630688000c
:1041d000c308de00f3ff2800e18060006406800071
:1041e00084816100c208dd00830171000008b20013
:1041f00063068800b2ff2f004700de00f304800052
:104200000301610061006000028170004300dd0075
:10421000f204880071ff2f00f404800084806000a5
:1042200081007000f104880000000600c2128800be
:10423000801288009112880001003700b0128000bf
:104240005202ab00fdff3a008e40a90000000600bc
:10425000001020005202b6000000e9004f00de000e
:104260000000060081128000e6806000e68f5000aa
:1042700001003200f00fb200a0128800000006001a
:10428000b1e2a9009f00a9009f20a9008f00a9000a
:104290008f20a900000006008f00a900e700600041
:1042a0008f20a9000001780083ff2f000207b200d1
:1042b000840680008481610083817000e8006000d2
:1042c00083068800c308de00f3f82f00e180600059
:1042d0008406800084816100c808dd0083017100cc
:1042e0000008b20083068800f2ef2f004700de00ce
:1042f000f30480000301610061006000028170002e
:104300004900dd00f2048800f1df2f00f404800092
:104310008480600081007000f104880000000600c5
:10432000c2158800801588009115880001003700ab
:10433000b0158000b202ab00fdff3a008f00a9006b
:104340000000060000102000b202b6000000e900e4
:104350004f00de000000060081158000e68060004e
:10436000e68f500001003200f00fb200a015880067
:1043700000000600889fbe008a9fbe00f1cf2f007c
:1043800062622000128960002706a80022318000a6
:104390002731800063622000938960002706a8000f
:1043a000213180002b3180008bcf5300f3ff3a0086
:1043b0001b409800020378004f05be00c838de009d
:1043c00036409800214098004f04be0000000600cf
:1043d0000621ef00610888008008880000000600c0
:1043e0008660a900e7006000f2ff2800cc08dd002d
:1043f00063058000030161006800600002817000b5
:1044000071ff2f0062058800b20480008280600086
:1044100081007000b104880000000600889fbe0083
:10442000800478008a9fbe0092c5b3008c1f78007c
:10443000810578000000eb00a940900082cf500079
:104440004a003e009941900082cf510047003e0053
:104450003942900042c2b300824f520043003e00f6
:104460008381fb00480edd000c8671000b00e0002c
:104470000900320018028000910280004544de00ed
:1044800067446400ff3ffc0010028000000eb30090
:1044900010028800910288003a3180004d55de00fc
:1044a0006105650001003a004f00070031318000ce
:1044b0000000eb00cf08de00030032001031800066
:1044c00027e6a9004f00de00f2cf2f00b94190008f
:1044d00064622000140a61008381fb002706a800a3
:1044e00004f02f0025318000050262006562200083
:1044f000950a6100048271002706a8002431880013
:104500002c3188000100e0000800320027e6a800f6
:104510000000e0000100320023e6a8000a00e000ed
:104520000500320030000700030037000a00e000f9
:1045300001003a0027a6a900100020000b00e000af
:104540000a00320091028000ff3ffc00f2f12f00d0
:104550006704640013028000030161004544dd002c
:104560000201740012028800910288004f06780050
:104570004f05be004f04be00000006000011800081
:1045800066006000e60f500002003a003011800023
:104590000000060030118000f00fb200000006009d
:1045a0008011800066006000e60f500002003a00b3
:1045b000b011800000000600b0118000f00fb200c2
:1045c000000006008012800066006000e60f5000c8
:1045d00002003a00b012800000000600b012800015
:1045e000f00fb2000000060011028000920280006d
:1045f000c508de00e7c06000ff3ffc00100280003d
:10460000000eb300100288009202880050052000be
:1046100027a6a800303b8800a00a2000303b880075
:1046200090028000ff3ffc00f2f12f00e780600065
:104630001302800003016100c508dd0002817000e3
:0c464000120288009002880000000600b2
:020000040000fa
:10464c0074610000736b0000206c00006973000043
:10465c00746500006e200000776100006974000032
:10466c00696e000067200000666f00007220000079
:10467c00736f00006d65000074680000696e0000c7
:10468c00672000006f6e0000207200006164000063
:10469c00696f00000d0a00000074000061730000d7
:1046ac006b2000006c69000073740000656e0000e4
:1046bc00206700006f740000207300006f6d000015
:1046cc0065740000686900006e670000206f0000d0
:1046dc006e20000072610000646900006f0d000024
:1046ec000a0000006e6f00002d6f000070200000ab
:1046fc00636f00006d6d0000616e000064200000af
:10470c00414300004b0d00000a00000072650000e0
:10471c007365000074200000636f00006d6d000075
:10472c00616e000064200000414300004b0d00004e
:10473c000a00000074720000616e0000736d0000ce
:10474c0069740000206400006174000061200000a6
:10475c00414300004b0d00000a000000496e0000b0
:10476c00636f00006d6900006e670000207200002e
:10477c006563000069650000766500006420000038
:10478c0064610000746100003a0d00000a00000032
:10479c00496e0000636f00006d6900006e670000d9
:1047ac0020740000726100006e73000063690000e9
:1047bc006576000065720000206300006f6e0000db
:1047cc0066690000670d00000a00000073650000b8
:1047dc0074200000636f00006e66000069670000c3
:1047ec0020410000434b00000d0a0000006900004e
:1047fc006e6300006f6d0000696e000067200000a2
:10480c00746500006c6500006d650000747200003a
:10481c007920000064610000746100000d0a000042
:10482c0000770000726900007465000020660000cb
:10483c006c6100007368000020410000434b0000d5
:10484c000d0a00000072000066200000636f00007b
:10485c006e6600006967000020410000434b0000b9
:10486c000d0a00000062000065610000636f00002b
:10487c006e20000064610000746100002073000071
:10488c006574000020410000434b00000d0a00003d
:10489c000062000065610000636f00006e20000084
:1048ac00636f00006e6600006967000020730000f3
:1048bc006574000020410000434b00000d0a00000d
:1048cc00006900006e6300006f6d0000696e0000ef
:1048dc006720000066690000726d000077610000bf
:1048ec00726500002072000065760000697300009c
:1048fc00696f00006e0d00000a0000007772000066
:10490c0069740000652000006f760000657200007d
:10491c002061000069720000206b000065790000c6
:10492c0020410000434b00000d0a0000006600000f
:10493c00697200006d770000617200006520000054
:10494c007570000064610000746500002041000077
:10495c00434b00000d0a0000006600006972000065
:10496c006d7700006172000065200000706100002e
:10497c00636b00006574000020410000434b000095
:10498c000d0a000000660000617300007420000036
:10499c00706f000077650000722000006c650000ed
:1049ac00766500006c200000736500007420000028
:1049bc00414300004b0d00000a000000756e000022
:1049cc006b6e00006f7700006e200000636f0000bc
:1049dc006d6d0000616e00006420000062790000c3
:1049ec00746500002e200000647500006d700000de
:1049fc00696e00006720000070610000636b0000ae
:104a0c00657400003a0d00000a000000203a000016
:104a1c0000450000727200006f72000020730000ed
:104a2c0065740000746900006e670000205200007d
:104a3c005443000020760000616c00007565000096
:104a4c00732c0000207300006f6d00006574000073
:104a5c00686900006e670000207700006173000039
:104a6c00206f000075740000206f000066200000ad
:104a7c00726100006e670000652e00000d0a0000d8
:104a8c00006d00006f6e00003a2000002530000021
:104a9c00327800000d0a0000006d00006461000017
:104aac00793a00002025000030320000780d00001b
:104abc000a00000079650000617200003a200000d5
:104acc0025300000327800000d0a0000006800005c
:104adc006f750000723a0000202500003032000093
:104aec00780d00000a0000006d6900006e3a0000ad
:104afc002025000030320000780d00000a00000074
:104b0c0073650000633a000020250000303200007d
:104b1c00780d00000a000000776400006179000045
:104b2c003a20000025300000327800000d0a000009
:104b3c0000420000756900006c740000206f0000da
:104b4c006e20000053650000702000003330000020
:104b5c00203200003031000036200000617400006b
:104b6c0020320000303a0000313800003a340000a6
:104b7c0033000000000000000000000000000000f6
:104b8c00000000002530000032780000000d00000d
:104b9c000a000000253000003358000020250000da
:104bac00303300005820000025300000335800003e
:104bbc002025000030330000582000002530000074
:104bcc00335800002025000030330000582000002e
:104bdc002530000033580000202500003033000041
:104bec00582000002530000033580000202500001c
:104bfc0030330000582000002530000033580000ee
:104c0c002025000030330000582000002530000023
:104c1c0033580000202500003033000058200000dd
:104c2c0025300000335800002025000030330000f0
:104c3c0058000000000000001000000018000000e8
:104c4c001c000000190000001d0000001a000000ec
:104c5c001e0000001b0000001f000000841e00004e
:104c6c0000000000093d000000000000127a000066
:104c7c000000000024f400000000000048e80000e0
:104c8c000100000090d000000300000020a10000f3
:104c9c0007000000404200000f000000808400006c
:104cac001e000000000900003d000000686f0000bd
:104cbc00757200003a2000002530000032780000a8
:104ccc000d0a00006d6900006e3a000020250000fe
:104cdc0030320000780d00000a730000656300009c
:104cec003a20000025300000327800000d0a000048
:104cfc0000000000303a0000253000003130000088
:104d0c006c750000200000000a0d0000000000007f
:104d1c00313a000025300000313000006c75000085
:104d2c00200000000a0d000000000000313a0000d5
:104d3c0025300000313000006c75000020000000b0
:104d4c000a0d000000000000313a00002530000080
:104d5c00313000006c750000200000000a0d0000ce
:104d6c00000000005254000000530000454e0000ab
:104d7c00544900004e4500004c0000000a0d000094
:104d8c00000000000a0d0000000000000a0d0000e9
:0c4d9c00000000000a0d000000000000f4
:020000040000fa
:104da8000200fa00000f78004086200010407800ca
:104db800804078001e007800014878001e00e80056
:104dc8005186200091407800014878001e80e80054
:104dd8006186200091407800014878009e007800a4
:104de8006380400071862000914078000148780077
:104df8009e027800648042008186200091407800fd
:104e0800014878009e007800658040009186200067
:104e180091407800014878009e027800668142003f
:104e280050438000614380004808de00004078005d
:104e3800004978009e007800678240005243800055
:104e48006343800000002000f10f200082027800f8
:104e580003017800800178000100780083826200f5
:104e6800000061008000eb00c000dd0000002000b1
:104e78000001be006128b800000171008181710045
:104e88004018de000100200000407800004a780049
:104e98009e0278006882420052438000634380008b
:104ea80000f02f0001002000820278000301780042
:104eb80080017800010078008382620000006100b0
:104ec8008000eb00c000dd00000020000001be00f3
:104ed8006128b8000001710081817100c81add00e5
:104ee8004810de0000807200c818de00004078001c
:104ef800004a78009e007800698140005043800095
:104f08006143800000407800004978009e027800e4
:104f18006a81420070438000814380004808de00b7
:104f280000407800004978009e0078006b824000bd
:104f3800724380008343800000002000f10f2000ae
:104f4800820278000301780080017800010078006f
:104f580083826200000061008000eb00c000dd0079
:104f6800000020000001be006128b80000017100a7
:104f7800818171004018de000100200000407800a7
:104f8800004a78009e0278006c82420072438000da
:104f98008343800000f02f00010020008202780087
:104fa80003017800800178000100780083826200a4
:104fb800000061008000eb00c000dd000000200060
:104fc8000001be006128b8000001710081817100f4
:104fd800c81add004810de0000807200c818de0024
:104fe80000407800004a78009e0078006d814000fb
:104ff80070438000814380000040780000497800b9
:105008000000eb00606288001500370060628000d5
:105018006e0040001e004000616280006e8140000a
:1050280041862000810041009140780001487800c5
:1050380060628000740040001e00400061628000d1
:105048007481400041862000810041009140780031
:1050580001487800606280000000e8006062880013
:1050680060628000e50f5000e8ff34009e0278007f
:105078007a804200f1438000c808de008140780051
:10508800014878009e0078007b804000f143800052
:1050980081407800014878009e0278007c804200b8
:1050a80001448000c808de0081407800014878008b
:1050b8009e0078007d804000014480008140780097
:1050c800014878009e0278007e80420011448000ea
:1050d800c808de0081407800014878009e0078000a
:1050e8007f804000114480008140780001487800aa
:1050f800050220001e80420021448000c808de000e
:105108008140780001487800110220001e8040008c
:105118002144800081407800014878000080fa002e
:10512800000006002200fa000e0078001cff0700ad
:105138000000eb00506288000c00370050628000cd
:105148006e4078000000fb00801f7800805c2a0019
:10515800801f78004a4e020000000000e4875700d4
:10516800506280000000e8005062880051628000b0
:1051780010022000808f5000f0ff3400d05c2a001d
:10518800801f78004a4e0200000000008f87e90067
:105198000080fa00000006000400fa00000f780002
:1051a8001107980040c420008040eb0001487800b7
:1051b80050c420008040eb00014878002000200007
:1051c8003062880012003700306280001e00400004
:1051d8009040780040c420001040780080c0400013
:1051e80040c420000148780050c420009040780056
:1051f80040c420001040780080c0400050c4200007
:1052080001487800306280000000e80030628800c1
:10521800316280001e009000808f5000eaff350048
:1052280040c42000104078000080fb0040628800e5
:1052380040628000c800dd0050c4200010407800a3
:105248000080fb000100700040628800406280001e
:105258000080fa00000006000600fa00000f78003f
:1052680011079800220798001e007800810420008a
:10527800010878001e00780010007800c800dd00e2
:1052880050062000810070001e0078000108780098
:105298001e0078009e009000110098001e00780003
:1052a800ae00900021009800c0c3200081c4b30064
:1052b80001487800d0c3200051c6b30001487800e7
:1052c8001e0090004800de0080407800e0c3200007
:1052d800014878001e00900080407800f0c320004c
:1052e800014878002e0090004800de0080407800d9
:1052f80000c42000014878002e009000804078000b
:1053080010c420000148780061002000c0c32000bc
:10531800a1ff070010628800106280004800de00cc
:10532800804078001e00780061409800106280007c
:10533800804078001e007800714098000080fa00d4
:10534800000006000e00fa002007980031079800b8
:105358004207980053079800640798005e01900080
:10536800ce0090003e009000bbff070010b3200065
:1053780081c4b3000148780020b3200051c6b300af
:10538800014878004e0090004800de008040780018
:1053980030b32000014878004e009000804078002b
:1053a80040b32000014878005e0090004800de000d
:1053b8008040780050b32000014878005e009000db
:1053c8008040780060b32000014878003e009000db
:1053d800e040900070b32000014878003e00900043
:1053e800f040900080b32000014878002e00900023
:1053f80082002000be0090001c0302000000000094
:105408005e0090000000e000210032002e009000b5
:10541800680040005e019000ee0090001c0302004e
:105428000000000090b320005e019000ee009000a4
:105438001c030200000000005e00900068004000ad
